{
  "contractName": "DNALocks",
  "abi": [
    {
      "constant": true,
      "inputs": [
        {
          "name": "",
          "type": "address"
        },
        {
          "name": "",
          "type": "uint256"
        }
      ],
      "name": "records",
      "outputs": [
        {
          "name": "amount",
          "type": "uint256"
        },
        {
          "name": "times",
          "type": "uint256"
        },
        {
          "name": "phase",
          "type": "uint8"
        },
        {
          "name": "rewardItem",
          "type": "uint8"
        },
        {
          "name": "isdraw",
          "type": "bool"
        }
      ],
      "payable": false,
      "stateMutability": "view",
      "type": "function"
    },
    {
      "constant": true,
      "inputs": [],
      "name": "owner",
      "outputs": [
        {
          "name": "",
          "type": "address"
        }
      ],
      "payable": false,
      "stateMutability": "view",
      "type": "function"
    },
    {
      "constant": true,
      "inputs": [
        {
          "name": "",
          "type": "uint256"
        }
      ],
      "name": "holds",
      "outputs": [
        {
          "name": "",
          "type": "address"
        }
      ],
      "payable": false,
      "stateMutability": "view",
      "type": "function"
    },
    {
      "constant": false,
      "inputs": [
        {
          "name": "_newOwner",
          "type": "address"
        }
      ],
      "name": "transferOwnership",
      "outputs": [],
      "payable": false,
      "stateMutability": "nonpayable",
      "type": "function"
    },
    {
      "inputs": [
        {
          "name": "_dnaToken",
          "type": "address"
        }
      ],
      "payable": false,
      "stateMutability": "nonpayable",
      "type": "constructor"
    },
    {
      "payable": true,
      "stateMutability": "payable",
      "type": "fallback"
    },
    {
      "anonymous": false,
      "inputs": [
        {
          "indexed": true,
          "name": "_hold",
          "type": "address"
        },
        {
          "indexed": false,
          "name": "_amount",
          "type": "uint256"
        },
        {
          "indexed": false,
          "name": "_phase",
          "type": "uint8"
        }
      ],
      "name": "Locked",
      "type": "event"
    },
    {
      "anonymous": false,
      "inputs": [
        {
          "indexed": true,
          "name": "_hold",
          "type": "address"
        },
        {
          "indexed": false,
          "name": "_amount",
          "type": "uint256"
        }
      ],
      "name": "Released",
      "type": "event"
    },
    {
      "anonymous": false,
      "inputs": [
        {
          "indexed": true,
          "name": "previousOwner",
          "type": "address"
        }
      ],
      "name": "OwnershipRenounced",
      "type": "event"
    },
    {
      "anonymous": false,
      "inputs": [
        {
          "indexed": true,
          "name": "previousOwner",
          "type": "address"
        },
        {
          "indexed": true,
          "name": "newOwner",
          "type": "address"
        }
      ],
      "name": "OwnershipTransferred",
      "type": "event"
    },
    {
      "constant": false,
      "inputs": [
        {
          "name": "_hold",
          "type": "address"
        },
        {
          "name": "_amount",
          "type": "uint256"
        },
        {
          "name": "_phase",
          "type": "uint8"
        }
      ],
      "name": "deposit",
      "outputs": [],
      "payable": false,
      "stateMutability": "nonpayable",
      "type": "function"
    },
    {
      "constant": false,
      "inputs": [
        {
          "name": "_hold",
          "type": "address"
        },
        {
          "name": "_index",
          "type": "uint256"
        }
      ],
      "name": "release",
      "outputs": [],
      "payable": false,
      "stateMutability": "nonpayable",
      "type": "function"
    },
    {
      "constant": false,
      "inputs": [],
      "name": "drain",
      "outputs": [],
      "payable": false,
      "stateMutability": "nonpayable",
      "type": "function"
    },
    {
      "constant": true,
      "inputs": [
        {
          "name": "_hold",
          "type": "address"
        }
      ],
      "name": "getHoldRecordsSize",
      "outputs": [
        {
          "name": "",
          "type": "uint256"
        }
      ],
      "payable": false,
      "stateMutability": "view",
      "type": "function"
    },
    {
      "constant": true,
      "inputs": [],
      "name": "getHoldSize",
      "outputs": [
        {
          "name": "",
          "type": "uint256"
        }
      ],
      "payable": false,
      "stateMutability": "view",
      "type": "function"
    },
    {
      "constant": true,
      "inputs": [],
      "name": "getBalanceOfContract",
      "outputs": [
        {
          "name": "",
          "type": "uint256"
        }
      ],
      "payable": false,
      "stateMutability": "view",
      "type": "function"
    },
    {
      "constant": true,
      "inputs": [
        {
          "name": "_hold",
          "type": "address"
        }
      ],
      "name": "getHoldLockedAmount",
      "outputs": [
        {
          "name": "",
          "type": "uint256"
        },
        {
          "name": "",
          "type": "uint256"
        }
      ],
      "payable": false,
      "stateMutability": "view",
      "type": "function"
    },
    {
      "constant": true,
      "inputs": [
        {
          "name": "_hold",
          "type": "address"
        },
        {
          "name": "_index",
          "type": "uint256"
        }
      ],
      "name": "getHoldRecord",
      "outputs": [
        {
          "name": "amount",
          "type": "uint256"
        },
        {
          "name": "times",
          "type": "uint256"
        },
        {
          "name": "phase",
          "type": "uint8"
        },
        {
          "name": "item",
          "type": "uint8"
        },
        {
          "name": "isdraw",
          "type": "bool"
        }
      ],
      "payable": false,
      "stateMutability": "view",
      "type": "function"
    }
  ],
  "bytecode": "0x608060405234801561001057600080fd5b50604051602080611ed783398101806040528101908080519060200190929190505050336000806101000a81548173ffffffffffffffffffffffffffffffffffffffff021916908373ffffffffffffffffffffffffffffffffffffffff16021790555080600460006101000a81548173ffffffffffffffffffffffffffffffffffffffff021916908373ffffffffffffffffffffffffffffffffffffffff160217905550600360016000600160ff16815260200190815260200160002060006101000a81548160ff021916908360ff160217905550600460016000600260ff16815260200190815260200160002060006101000a81548160ff021916908360ff160217905550600560016000600360ff16815260200190815260200160002060006101000a81548160ff021916908360ff160217905550600660016000600460ff16815260200190815260200160002060006101000a81548160ff021916908360ff160217905550600760016000600560ff16815260200190815260200160002060006101000a81548160ff021916908360ff16021790555050611d1e806101b96000396000f3006080604052600436106100ba576000357c0100000000000000000000000000000000000000000000000000000000900463ffffffff1680630357371d146100bf578063229688851461010c57806355b99116146101375780635cf9b4d61461018e57806382a6c0ac146101ec57806384dc805b146102795780638da5cb5b146103065780639890220b1461035d578063b2396f3c14610374578063b71b05821461039f578063f19ed6be1461040c578063f2fde38b14610466575b600080fd5b3480156100cb57600080fd5b5061010a600480360381019080803573ffffffffffffffffffffffffffffffffffffffff169060200190929190803590602001909291905050506104a9565b005b34801561011857600080fd5b50610121610cb7565b6040518082815260200191505060405180910390f35b34801561014357600080fd5b50610178600480360381019080803573ffffffffffffffffffffffffffffffffffffffff169060200190929190505050610db6565b6040518082815260200191505060405180910390f35b34801561019a57600080fd5b506101cf600480360381019080803573ffffffffffffffffffffffffffffffffffffffff169060200190929190505050610e02565b604051808381526020018281526020019250505060405180910390f35b3480156101f857600080fd5b50610237600480360381019080803573ffffffffffffffffffffffffffffffffffffffff16906020019092919080359060200190929190505050610f9d565b604051808681526020018581526020018460ff1660ff1681526020018360ff1660ff168152602001821515151581526020019550505050505060405180910390f35b34801561028557600080fd5b506102c4600480360381019080803573ffffffffffffffffffffffffffffffffffffffff16906020019092919080359060200190929190505050611016565b604051808681526020018581526020018460ff1660ff1681526020018360ff1660ff168152602001821515151581526020019550505050505060405180910390f35b34801561031257600080fd5b5061031b6112e8565b604051808273ffffffffffffffffffffffffffffffffffffffff1673ffffffffffffffffffffffffffffffffffffffff16815260200191505060405180910390f35b34801561036957600080fd5b5061037261130d565b005b34801561038057600080fd5b5061038961154d565b6040518082815260200191505060405180910390f35b3480156103ab57600080fd5b506103ca6004803603810190808035906020019092919050505061155a565b604051808273ffffffffffffffffffffffffffffffffffffffff1673ffffffffffffffffffffffffffffffffffffffff16815260200191505060405180910390f35b34801561041857600080fd5b50610464600480360381019080803573ffffffffffffffffffffffffffffffffffffffff16906020019092919080359060200190929190803560ff169060200190929190505050611598565b005b34801561047257600080fd5b506104a7600480360381019080803573ffffffffffffffffffffffffffffffffffffffff169060200190929190505050611998565b005b60006104b3611cba565b60008060008060009054906101000a900473ffffffffffffffffffffffffffffffffffffffff1673ffffffffffffffffffffffffffffffffffffffff163373ffffffffffffffffffffffffffffffffffffffff1614151561057c576040517f08c379a00000000000000000000000000000000000000000000000000000000081526004018080602001828103825260198152602001807f74686973206f7065726174696f6e206f776e6572206f6e6c790000000000000081525060200191505060405180910390fd5b600260008873ffffffffffffffffffffffffffffffffffffffff1673ffffffffffffffffffffffffffffffffffffffff168152602001908152602001600020805490509450600085111515610639576040517f08c379a00000000000000000000000000000000000000000000000000000000081526004018080602001828103825260148152602001807f6976616c696420686f6c6420616464726573732100000000000000000000000081525060200191505060405180910390fd5b6000861015801561064957508486105b15156106bd576040517f08c379a00000000000000000000000000000000000000000000000000000000081526004018080602001828103825260128152602001807f6976616c696420686f6c6420696e64657821000000000000000000000000000081525060200191505060405180910390fd5b600260008873ffffffffffffffffffffffffffffffffffffffff1673ffffffffffffffffffffffffffffffffffffffff1681526020019081526020016000208681548110151561070957fe5b906000526020600020906003020160a0604051908101604052908160008201548152602001600182015481526020016002820160009054906101000a900460ff1660ff1660ff1681526020016002820160019054906101000a900460ff1660ff1660ff1681526020016002820160029054906101000a900460ff16151515158152505093508360800151151515610808576040517f08c379a000000000000000000000000000000000000000000000000000000000815260040180806020018281038252600d8152602001807f6861732072656c6561736564210000000000000000000000000000000000000081525060200191505060405180910390fd5b6000925060009150836060015190504261085f85602001516108516301e1338061084360018a6060015160ff16611a6890919063ffffffff16565b611a8490919063ffffffff16565b611a6890919063ffffffff16565b10156108e0576108d5846040015160ff166108c760646108b9600160008a6040015160ff1660ff16815260200190815260200160002060009054906101000a900460ff1660ff168960000151611a8490919063ffffffff16565b611abc90919063ffffffff16565b611abc90919063ffffffff16565b830192506001810190505b4261091585602001516109076301e13380886040015160ff16611a8490919063ffffffff16565b611a6890919063ffffffff16565b101561093957610932846000015184611a6890919063ffffffff16565b9250600191505b6000831115156109b1576040517f08c379a000000000000000000000000000000000000000000000000000000000815260040180806020018281038252600c8152602001807f6e6f6e652072656c65617365000000000000000000000000000000000000000081525060200191505060405180910390fd5b82600460009054906101000a900473ffffffffffffffffffffffffffffffffffffffff1673ffffffffffffffffffffffffffffffffffffffff166370a08231306040518263ffffffff167c0100000000000000000000000000000000000000000000000000000000028152600401808273ffffffffffffffffffffffffffffffffffffffff1673ffffffffffffffffffffffffffffffffffffffff168152602001915050602060405180830381600087803b158015610a6f57600080fd5b505af1158015610a83573d6000803e3d6000fd5b505050506040513d6020811015610a9957600080fd5b810190808051906020019092919050505010151515610b20576040517f08c379a00000000000000000000000000000000000000000000000000000000081526004018080602001828103825260118152602001807f6e6f7420656e6f75676820746f6b656e2100000000000000000000000000000081525060200191505060405180910390fd5b610b6d8784600460009054906101000a900473ffffffffffffffffffffffffffffffffffffffff1673ffffffffffffffffffffffffffffffffffffffff16611ad29092919063ffffffff16565b8115610bea576001600260008973ffffffffffffffffffffffffffffffffffffffff1673ffffffffffffffffffffffffffffffffffffffff16815260200190815260200160002087815481101515610bc157fe5b906000526020600020906003020160020160026101000a81548160ff0219169083151502179055505b80600260008973ffffffffffffffffffffffffffffffffffffffff1673ffffffffffffffffffffffffffffffffffffffff16815260200190815260200160002087815481101515610c3757fe5b906000526020600020906003020160020160016101000a81548160ff021916908360ff1602179055508673ffffffffffffffffffffffffffffffffffffffff167fb21fb52d5749b80f3182f8c6992236b5e5576681880914484d7f4c9b062e619e846040518082815260200191505060405180910390a250505050505050565b6000600460009054906101000a900473ffffffffffffffffffffffffffffffffffffffff1673ffffffffffffffffffffffffffffffffffffffff166370a08231306040518263ffffffff167c0100000000000000000000000000000000000000000000000000000000028152600401808273ffffffffffffffffffffffffffffffffffffffff1673ffffffffffffffffffffffffffffffffffffffff168152602001915050602060405180830381600087803b158015610d7657600080fd5b505af1158015610d8a573d6000803e3d6000fd5b505050506040513d6020811015610da057600080fd5b8101908080519060200190929190505050905090565b6000600260008373ffffffffffffffffffffffffffffffffffffffff1673ffffffffffffffffffffffffffffffffffffffff168152602001908152602001600020805490509050919050565b600080600080600080610e13611cba565b600260008973ffffffffffffffffffffffffffffffffffffffff1673ffffffffffffffffffffffffffffffffffffffff1681526020019081526020016000208054905094506000935060009250600091505b84821015610f8d57600260008973ffffffffffffffffffffffffffffffffffffffff1673ffffffffffffffffffffffffffffffffffffffff16815260200190815260200160002082815481101515610eb957fe5b906000526020600020906003020160a0604051908101604052908160008201548152602001600182015481526020016002820160009054906101000a900460ff1660ff1660ff1681526020016002820160019054906101000a900460ff1660ff1660ff1681526020016002820160029054906101000a900460ff1615151515815250509050806080015115610f6657610f5f816000015184611a6890919063ffffffff16565b9250610f80565b610f7d816000015185611a6890919063ffffffff16565b93505b8180600101925050610e65565b8383965096505050505050915091565b600260205281600052604060002081815481101515610fb857fe5b9060005260206000209060030201600091509150508060000154908060010154908060020160009054906101000a900460ff16908060020160019054906101000a900460ff16908060020160029054906101000a900460ff16905085565b6000806000806000600260008873ffffffffffffffffffffffffffffffffffffffff1673ffffffffffffffffffffffffffffffffffffffff16815260200190815260200160002080549050861015156110d7576040517f08c379a000000000000000000000000000000000000000000000000000000000815260040180806020018281038252600e8152602001807f6f7574206f6620626f756e64732100000000000000000000000000000000000081525060200191505060405180910390fd5b600260008873ffffffffffffffffffffffffffffffffffffffff1673ffffffffffffffffffffffffffffffffffffffff1681526020019081526020016000208681548110151561112357fe5b906000526020600020906003020160000154600260008973ffffffffffffffffffffffffffffffffffffffff1673ffffffffffffffffffffffffffffffffffffffff1681526020019081526020016000208781548110151561118157fe5b906000526020600020906003020160010154600260008a73ffffffffffffffffffffffffffffffffffffffff1673ffffffffffffffffffffffffffffffffffffffff168152602001908152602001600020888154811015156111df57fe5b906000526020600020906003020160020160009054906101000a900460ff16600260008b73ffffffffffffffffffffffffffffffffffffffff1673ffffffffffffffffffffffffffffffffffffffff1681526020019081526020016000208981548110151561124a57fe5b906000526020600020906003020160020160019054906101000a900460ff16600260008c73ffffffffffffffffffffffffffffffffffffffff1673ffffffffffffffffffffffffffffffffffffffff1681526020019081526020016000208a8154811015156112b557fe5b906000526020600020906003020160020160029054906101000a900460ff16945094509450945094509295509295909350565b6000809054906101000a900473ffffffffffffffffffffffffffffffffffffffff1681565b60008060009054906101000a900473ffffffffffffffffffffffffffffffffffffffff1673ffffffffffffffffffffffffffffffffffffffff163373ffffffffffffffffffffffffffffffffffffffff161415156113d3576040517f08c379a00000000000000000000000000000000000000000000000000000000081526004018080602001828103825260198152602001807f74686973206f7065726174696f6e206f776e6572206f6e6c790000000000000081525060200191505060405180910390fd5b600460009054906101000a900473ffffffffffffffffffffffffffffffffffffffff1673ffffffffffffffffffffffffffffffffffffffff166370a08231306040518263ffffffff167c0100000000000000000000000000000000000000000000000000000000028152600401808273ffffffffffffffffffffffffffffffffffffffff1673ffffffffffffffffffffffffffffffffffffffff168152602001915050602060405180830381600087803b15801561149057600080fd5b505af11580156114a4573d6000803e3d6000fd5b505050506040513d60208110156114ba57600080fd5b810190808051906020019092919050505090506000811115156114dc57600080fd5b61154a6000809054906101000a900473ffffffffffffffffffffffffffffffffffffffff1682600460009054906101000a900473ffffffffffffffffffffffffffffffffffffffff1673ffffffffffffffffffffffffffffffffffffffff16611ad29092919063ffffffff16565b50565b6000600380549050905090565b60038181548110151561156957fe5b906000526020600020016000915054906101000a900473ffffffffffffffffffffffffffffffffffffffff1681565b60008060009054906101000a900473ffffffffffffffffffffffffffffffffffffffff1673ffffffffffffffffffffffffffffffffffffffff163373ffffffffffffffffffffffffffffffffffffffff1614151561165e576040517f08c379a00000000000000000000000000000000000000000000000000000000081526004018080602001828103825260198152602001807f74686973206f7065726174696f6e206f776e6572206f6e6c790000000000000081525060200191505060405180910390fd5b69021e19e0c9bab240000083101515156116e0576040517f08c379a00000000000000000000000000000000000000000000000000000000081526004018080602001828103825260168152602001807f6c657373207468616e20746865206d696e696d756d210000000000000000000081525060200191505060405180910390fd5b60018260ff16101580156116f8575060058260ff1611155b151561176c576040517f08c379a00000000000000000000000000000000000000000000000000000000081526004018080602001828103825260128152602001807f6976616c6964206c6f636b20706861736521000000000000000000000000000081525060200191505060405180910390fd5b600260008573ffffffffffffffffffffffffffffffffffffffff1673ffffffffffffffffffffffffffffffffffffffff168152602001908152602001600020805490509050600260008573ffffffffffffffffffffffffffffffffffffffff1673ffffffffffffffffffffffffffffffffffffffff16815260200190815260200160002060a0604051908101604052808581526020014281526020018460ff168152602001600060ff1681526020016000151581525090806001815401808255809150509060018203906000526020600020906003020160009091929091909150600082015181600001556020820151816001015560408201518160020160006101000a81548160ff021916908360ff16021790555060608201518160020160016101000a81548160ff021916908360ff16021790555060808201518160020160026101000a81548160ff02191690831515021790555050505060008114156119365760038490806001815401808255809150509060018203906000526020600020016000909192909190916101000a81548173ffffffffffffffffffffffffffffffffffffffff021916908373ffffffffffffffffffffffffffffffffffffffff160217905550505b8373ffffffffffffffffffffffffffffffffffffffff167f9595e0da41340918ebd536074cbe397b21d5b054c5d27d497a4b2c5f164ab33e8484604051808381526020018260ff1660ff1681526020019250505060405180910390a250505050565b6000809054906101000a900473ffffffffffffffffffffffffffffffffffffffff1673ffffffffffffffffffffffffffffffffffffffff163373ffffffffffffffffffffffffffffffffffffffff16141515611a5c576040517f08c379a00000000000000000000000000000000000000000000000000000000081526004018080602001828103825260198152602001807f74686973206f7065726174696f6e206f776e6572206f6e6c790000000000000081525060200191505060405180910390fd5b611a6581611bc0565b50565b60008183019050828110151515611a7b57fe5b80905092915050565b600080831415611a975760009050611ab6565b8183029050818382811515611aa857fe5b04141515611ab257fe5b8090505b92915050565b60008183811515611ac957fe5b04905092915050565b8273ffffffffffffffffffffffffffffffffffffffff1663a9059cbb83836040518363ffffffff167c0100000000000000000000000000000000000000000000000000000000028152600401808373ffffffffffffffffffffffffffffffffffffffff1673ffffffffffffffffffffffffffffffffffffffff16815260200182815260200192505050602060405180830381600087803b158015611b7557600080fd5b505af1158015611b89573d6000803e3d6000fd5b505050506040513d6020811015611b9f57600080fd5b81019080805190602001909291905050501515611bbb57600080fd5b505050565b600073ffffffffffffffffffffffffffffffffffffffff168173ffffffffffffffffffffffffffffffffffffffff1614151515611bfc57600080fd5b8073ffffffffffffffffffffffffffffffffffffffff166000809054906101000a900473ffffffffffffffffffffffffffffffffffffffff1673ffffffffffffffffffffffffffffffffffffffff167f8be0079c531659141344cd1fd0a4f28419497f9722a3daafe3b4186f6b6457e060405160405180910390a3806000806101000a81548173ffffffffffffffffffffffffffffffffffffffff021916908373ffffffffffffffffffffffffffffffffffffffff16021790555050565b60a0604051908101604052806000815260200160008152602001600060ff168152602001600060ff16815260200160001515815250905600a165627a7a723058202cd0cb1bd70e9af2a9a68bb110a3fc30efd55129422e8a17bfc8e31b311d04700029",
  "source": "/**\n *HGB project Dna Token locks\n * code by sid-days\n * HGB project:www.hgbc.io\n*/\n\npragma solidity ^0.4.25;\n\nimport \"./SafeMath.sol\";\nimport \"./Ownable.sol\";\n\n/**\n * @title ERC20Basic\n * @dev Simpler version of ERC20 interface\n * @dev see https://github.com/ethereum/EIPs/issues/179\n */\ncontract ERC20Basic {\n  function totalSupply() public view returns (uint256);\n  function balanceOf(address who) public view returns (uint256);\n  function transfer(address to, uint256 value) public returns (bool);\n  event Transfer(address indexed from, address indexed to, uint256 value);\n}\n\n/**\n * @title ERC20 interface\n * @dev see https://github.com/ethereum/EIPs/issues/20\n */\ncontract ERC20 is ERC20Basic {\n  function allowance(address owner, address spender)\n    public view returns (uint256);\n\n  function transferFrom(address from, address to, uint256 value)\n    public returns (bool);\n\n  function approve(address spender, uint256 value) public returns (bool);\n  event Approval(\n    address indexed owner,\n    address indexed spender,\n    uint256 value\n  );\n}\n\n/**\n * @title SafeERC20\n * @dev Wrappers around ERC20 operations that throw on failure.\n * To use this library you can add a `using SafeERC20 for ERC20;` statement to your contract,\n * which allows you to call the safe operations as `token.safeTransfer(...)`, etc.\n */\nlibrary SafeERC20 {\n  function safeTransfer(ERC20Basic token, address to, uint256 value) internal {\n    require(token.transfer(to, value));\n  }\n\n  function safeTransferFrom(\n    ERC20 token,\n    address from,\n    address to,\n    uint256 value\n  )\n    internal\n  {\n    require(token.transferFrom(from, to, value));\n  }\n\n  function safeApprove(ERC20 token, address spender, uint256 value) internal {\n    require(token.approve(spender, value));\n  }\n}\n\ncontract DNALocks is Ownable {\n    using SafeMath for uint256;\n    using SafeERC20 for ERC20;\n    \n    mapping(uint8 => uint8) internal rewardRate;\n    uint256 constant MIN_AMOUNT   = 10000 ether; // MIN 10000 DNA\n    uint256 constant ONE_YEAR_SECONDS = 365*24*60*60;\n    // user DNA lock record\n    struct Record {\n        uint256 amount;\n        uint256 times;\n        uint8   phase;\n        uint8   rewardItem;\n        bool    isdraw;\n    }\n    mapping (address => Record[]) public records;\n    address[] public holds;\n    \n    // ERC20 basic token contract being held\n    ERC20 dnaToken;\n\n    // Initialize the contract\n    constructor(ERC20 _dnaToken) public {\n        dnaToken = _dnaToken;\n        rewardRate[1] = 3; // one year 3% reward\n        rewardRate[2] = 4; // two years 4% reward\n        rewardRate[3] = 5; // three years 5% reward\n        rewardRate[4] = 6; // four years 6% reward\n        rewardRate[5] = 7; // five years 7% reward\n    }\n    \n    event Locked(address indexed _hold, uint256 _amount, uint8 _phase);\n    event Released(address indexed _hold, uint256 _amount);\n    \n    /*\n     * PUBLIC FUNCTIONS\n     */\n    function() payable public {\n        revert();\n    }\n    \n    /*\n     * \n     * 1DNA1-5\n     */\n    function deposit(address _hold, uint256 _amount, uint8 _phase) onlyOwner public {\n        require(_amount >= MIN_AMOUNT, \"less than the minimum!\");\n        require(_phase>=1 && _phase <= 5, \"ivalid lock phase!\");\n        uint256 rlen = records[_hold].length;\n        records[_hold].push(Record({\n            amount : _amount,\n            times : now,\n            phase : _phase,\n            rewardItem: 0,\n            isdraw: false\n        }));\n        if (rlen == 0) {\n            holds.push(_hold);   \n        }\n        emit Locked(_hold, _amount, _phase);\n    }\n    \n    /*\n     * \n     */\n    function release(address _hold, uint256 _index) onlyOwner public {\n        uint256 rlen = records[_hold].length;\n        require(rlen > 0, \"ivalid hold address!\");\n        require(_index >= 0 && _index < rlen, \"ivalid hold index!\");\n        Record memory record = records[_hold][_index];\n        require(!record.isdraw, \"has released!\");\n        uint256 amount = 0;\n        bool isdraw = false;\n        uint8 item = record.rewardItem;\n        // release reward\n        if(uint256(record.rewardItem).add(1).mul(ONE_YEAR_SECONDS).add(record.times) < now) {\n            amount = amount + record.amount.mul(uint256(rewardRate[record.phase])).div(100).div(uint256(record.phase));\n            item = item + 1;\n        }\n        if(uint256(record.phase).mul(ONE_YEAR_SECONDS).add(record.times) < now) {\n            amount = amount.add(record.amount);\n            isdraw = true;\n        }\n\n        require(amount > 0, \"none release\");\n        require(dnaToken.balanceOf(address(this)) >= amount, \"not enough token!\");\n        dnaToken.safeTransfer(_hold, amount);\n        if(isdraw) records[_hold][_index].isdraw = true;\n        records[_hold][_index].rewardItem = item;\n        emit Released(_hold, amount);\n    }\n    \n    // Drains DNA.\n    function drain() onlyOwner public {\n        uint256 amount = dnaToken.balanceOf(address(this));\n        require(amount > 0);\n        dnaToken.safeTransfer(owner, amount);\n    }\n    \n    function getHoldRecordsSize(address _hold) public view returns (uint256) {\n        return records[_hold].length;\n    }\n    \n    function getHoldSize() public view returns (uint256) {\n        return holds.length;\n    }\n    \n    function getBalanceOfContract() public view returns (uint256) {\n        return dnaToken.balanceOf(address(this));\n    }\n    \n    function getHoldLockedAmount(address _hold) public view returns (uint256, uint256) {\n        uint256 rlen = records[_hold].length;\n        uint256 lockM = 0;\n        uint256 releaseM = 0;\n        for (uint256 i=0; i < rlen; i++) {\n            Record memory record = records[_hold][i];\n            if (record.isdraw) {\n                releaseM = releaseM.add(record.amount);\n            }else {\n                lockM = lockM.add(record.amount);\n            }\n        }\n        return (lockM, releaseM);\n    }\n    \n    function getHoldRecord(address _hold, uint256 _index) public view returns (uint256 amount, uint256 times, uint8 phase, uint8 item, bool isdraw) {\n        require(_index < records[_hold].length, \"out of bounds!\");\n        return (records[_hold][_index].amount, records[_hold][_index].times, records[_hold][_index].phase, records[_hold][_index].rewardItem, records[_hold][_index].isdraw);\n    }\n    \n}\n\n",
  "sourcePath": "/Users/linjingjing/Documents/project/hgbc/HGBCToken/contracts/DNALocks.sol",
  "compiler": {
    "name": "solc",
    "version": "0.4.25+commit.59dbf8f1.Emscripten.clang"
  },
  "schemaVersion": "3.0.9",
  "updatedAt": "2019-09-16T06:47:04.317Z",
  "devdoc": {
    "methods": {
      "transferOwnership(address)": {
        "details": "Allows the current owner to transfer control of the contract to a newOwner.",
        "params": {
          "_newOwner": "The address to transfer ownership to."
        }
      }
    }
  },
  "userdoc": {
    "methods": {}
  }
}